:0600000002006B020AC3BE
:03000B00020D489B
:03001300020B16C7
:01001B0032B2
:03002300020A2BA3
:03002B00020F2899
:01003300329A
:03003B00020B694C
:030043000209ECC3
:01004B003282
:03005300020A7727
:01005B003272
:03006300020F2663
:03006600020BBDCD
:02006900E4733E
:0D006B0075812D120BC8E58260030200664E
:10007800791BE94400601B7A0190133878D775A082
:1000880000E493F2A308B8000205A0D9F4DAF275E7
:02009800A0FFC7
:06009A00E478FFF6D8FD3A
:1000A0007800E84400600A799475A000E4F309D868
:1000B000FC7843E84400600C7901900094E4F0A3DC
:0400C000D8FCD9FA95
:0C00C4007510BD75110B7512007513004E
:0300D000751B009D
:0E00D4007808E4F608F608F608F6780C7600D0
:0200E200C20258
:0200E400C20355
:0300E600020066AF
:1000EA001201889000947402F0758220120BCC9051
:1000FA0000947402F075820E120BCC900094740175
:10010A00F0758210120BCC900095E4F07582100203
:10011A000CD3758220120C83E582B40100E433FF0C
:10012A00B51202802AEFF51260147582011203DFFC
:10013A009000957401F0758210120CD380117582AB
:10014A00011203F6900095E4F0758210120CD37533
:10015A00820E120C83E582B40100E433FFB5130268
:10016A008013EFF51360087582021203DF800675AB
:10017A0082021203F6900001E4F5F0020E0512095C
:10018A00A81209D21209C175DD0075D30075D50010
:10019A002275D30074FC55D24402F5D29000D7E4FC
:1001AA00F022A2DE22AF827D007E009000D7E060BE
:1001BA00240DBD00010E900005C007C006C005123F
:1001CA000EB6D005D006D007C3ED9450EE94C340C6
:1001DA00DA75820022BF013990004A7401F07E006C
:1001EA00BE080050278E047D0074412CFCE43DFDBE
:1001FA00EC240AFCED3400FDEE24D8F582E4340048
:10020A00F583E0FB8C828D83F00E80D475D3098050
:10021A003FBF023990004A7402F07F00BF040050C9
:10022A00278F057E0074412DFDE43EFEED240AFD74
:10023A00EE3400FEEF24E0F582E43400F583E0FCBE
:10024A008D828E83F00F80D475D305800375D30019
:10025A009000D77401F053D2FC75820122AF82BF9D
:10026A00880040088F06EE2478FE8042BF80004056
:10027A00239000D8E0FD8F04EC2480F5F005F0749B
:10028A0001800225E0D5F0FBFC42059000D8EDF094
:10029A007E00801AEF90111193FE7003F58222EE10
:1002AA0030E70B9000D8E04402FFF053067F90003D
:1002BA00DAE0FFB50602805C9000DBE0FFB50602DB
:1002CA0080529000DCE0FFB5060280489000DDE035
:1002DA00FFB50602803E9000DEE0FFB506028034DC
:1002EA009000DFE0FFB50602802A7F027D02ED243E
:1002FA00D8FBE43400FC8B828C83E070088B828C00
:10030A0083EEF080080D8D07BD080040E1BF0804A8
:10031A00758200227582011201AF75820122AF82B5
:10032A00BF880040088F06EE2478FE8043BF800015
:10033A0040249000D8E0FD8F04EC2480F5F005F00D
:10034A007401800225E0D5F0FBF4FC52059000D838
:10035A00EDF07E00801AEF90111193FE7003F58282
:10036A0022EE30E70B9000D8E054FDFFF053067FF1
:10037A007F02EE6016EF24D8FCE43400FD8C828DF7
:10038A0083E0B506068C828D83E4F00FBF08004037
:10039A00E17582011201AF758201227F00BF080058
:1003AA00500FEF24D8F582E43400F583E4F00F808F
:1003BA00EC7582010201AFAF82C007120267AE82FA
:1003CA00D0078F82C006120328D0068E82229000A0
:1003DA000AE0F58222AF829000E0E042079000E056
:1003EA00EFF07582021201AF75820122AF8290008E
:1003FA00E0E0FEEFF452069000E0EEF075820212A1
:10040A0001AF75820122AF82C0071203DF90271065
:10041A00120EB6D0078F821203F675820122AF82BE
:10042A009000E1EFF09000E2E514F075820212010B
:10043A00AF75820122AF829000E3EFF0758202125B
:06044A0001AF75820122E2
:10045000AFDBBF08028003020846900007E0FE7F82
:1004600000900006E0FD7C004FF515EC4EF5167F80
:1004700000900001E0F5178F1B900000E0FE546033
:100480006027900000E0FE5306607D00BE2005BDA1
:100490000002800BBE400DBD000A7FFF0208487FAE
:1004A000FF0208487FFF020848E51724F4500302C2
:1004B0000842E517240B83F582E517241083F583A2
:1004C000E473245242124221DA422E494848080677
:1004D00008070806040806060808900003E0FEBEA8
:1004E00001028013BE02028023BE03028033BE22BB
:1004F000030205930205B1751991751A119011A3A4
:10050000E493FD740193FE8D070205B37519A5757B
:100510001A1190124AE493FD740193FE8D070205AF
:10052000B3900002E0701475194C751A12901250B5
:10053000E493FD740193FE8D078078900002E0FE45
:10054000BE0114751988751A12901296E493FD7401
:100550000193FE8D07805C900002E0FEBE021475E0
:100560001970751A12901286E493FD740193FE8D32
:10057000078040900002E0FEBE0314751952751A00
:100580001290126EE493FD740193FE8D0780247F18
:10059000FF8020900002E070147519D0751A119038
:1005A00011CEE493FD740193FE8D0780067FFF80DA
:1005B000027FFFBFFF030208488F057E00C3ED9551
:1005C00015EE951650048D158E16AD15AE16C3EDAD
:1005D0009408EE9400920040067B087C008004ABF7
:1005E00015AC168B077C00C3EC9F50198C027B0066
:1005F000EC2519F582E4351AF583E493F98A828BA8
:1006000083F00C80E28F037C00EDC39BFDEE9CFE2B
:100610008D158E16EF2519F519E4351AF51A02080D
:1006200048900002E0FE8E15751600020848900002
:1006300000E518F0AD15AE16C3ED9401EE94005030
:10064000030208487F01020848900002E0F5180202
:100650000848900000E0541F702F900003E0FD7EDA
:1006600000900002E0FC7B004206EB4205BE011454
:10067000BD00119011ACE493FE30E5030208487F01
:10068000FF0208487FFF020848900000E0FE530682
:100690001F7D00BE0277BD0074900004E0FEBE0125
:1006A00002805FBE02028049BE03028033BE0402A4
:1006B000801DBE81028040BE8202802ABE830280ED
:1006C00014BE844474BC55DE4402F5DE020848536F
:1006D000DE7302084874BC55D64402F5D6020848B9
:1006E00053D67302084874BC55D44402F5D40208AA
:1006F0004853D47302084874BC55D24402F5D20260
:10070000084853D2730208487FFF0208487FFF025F
:100710000848900000E0541F702F900003E0FD7E19
:1007200000900002E0FC7B004206EB4205BE011493
:10073000BD00119011ACE493FE30E5030208487F40
:10074000FF0208487FFF020848900000E0FE5306C1
:100750001F7D00BE0205BD0002800302082090003C
:1007600003E0FD7E00900002E0FC7B004206EB42CD
:1007700005EE4D600302081C900005E0FD7E009030
:100780000004E0FC7B004206EB4205BE0106BD0012
:1007900003020810BE0205BD00028060BE0305BD55
:1007A00000028044BE0405BD00028028BE8105BD54
:1007B00000028052BE8205BD00028036BE8305BDA8
:1007C0000002801ABE8451BD004E74BF55DE440342
:1007D000F5DE8074747F55DE440CF5DE806A74BFEC
:1007E00055D64403F5D68060747F55D6440CF5D6B3
:1007F000805674BF55D44403F5D4804C747F55D4CF
:10080000440CF5D4804274BF55D24403F5D28038ED
:10081000747F55D2440CF5D27FFF802C7FFF802857
:100820007FFF8024900000E4F0900001F0AD15AE51
:1008300016C3ED9402EE940040047F02800AAF15C7
:1008400080067FFF80027FFFBFFF077517FF75DC03
:10085000CF22EF24F740068FDD75DCC02275DD0066
:1008600075DCC0227405B51702805D7406B5176685
:10087000AE15AF16C3EE9408EF9400920140067CCB
:10088000087D008004AC15AD167D00C3ED9C5019A9
:100890008D027B00ED2519F582E4351AF583E4938A
:1008A000F98A828B83F00D80E28C037D00EEC39B7E
:1008B000FEEF9DFF8E158F16EC2519F519E4351AFC
:1008C000F51A8CDD63DC4022E5E35480FFE5154F2B
:1008D000F5E375DC022275DD0075DC022275DD00B2
:1008E00043DC022220D903020989E5D9540FFFAD68
:1008F000D95305307E00BD0005BE0002801BBD102F
:1009000005BE00028035BD2005BE00028042BD301C
:1009100005BE00028059020987EF24FB500302093B
:1009200087EF2F900927738008800B805A805880AA
:10093000561208DD80511201AC804CEF24FB404779
:10094000EF2F90094673803F803D803B8039803790
:10095000EF24FB4032EF2F90095B738008800B80FF
:100960002680248022120864801D12019B8018EFCB
:1009700024FB4013EF2F90097A73800880098007C9
:1009800080058003120450C2D930D80F75DC02757F
:10099000D21275E300C2DAC2D9C2D810DA0122E558
:1009A000DA20E20375D8FF2275E20053E27F43E2CA
:1009B0002975E30053E2BF53D1FB75D18043D101C8
:1009C0002243E10443E10243E10143D81FD2EAD2CA
:1009D000AF227E0A7F008EEE8FEF75D2127E007FEF
:0C09E000008EEC8FED75EAC075DC022281
:1009EC00C021C0E0C0F0C082C083C007C006C005F3
:1009FC00C004C003C002C001C000C0D075D000123A
:100A0C0008E4D0D0D000D001D002D003D004D0055F
:100A1C00D006D007D083D082D0F0D0E0D02132C025
:100A2C0021C0E0C0F0C082C083C007C006C005C0B2
:100A3C0004C003C002C001C000C0D075D000309803
:100A4C0005120F9AC298309905120FD0C299D0D0C6
:100A5C00D000D001D002D003D004D005D006D007EE
:100A6C00D083D082D0F0D0E0D02132C021C0E0C001
:100A7C00F0C082C083C007C006C005C004C003C05C
:100A8C0002C001C000C0D075D00030C005121014D7
:100A9C00C2C030C10512104AC2C1D0D0D000D001A2
:100AAC00D002D003D004D005D006D007D083D0829A
:100ABC00D0F0D0E0D02132C021C0E0C0F0C082C064
:100ACC0083C007C006C005C004C003C002C001C07B
:100ADC0000C0D075D0009000E6E0FEA3E0FFC00798
:100AEC00C0068E828F83120069D006D007D0D0D07A
:100AFC0000D001D002D003D004D005D006D007D04E
:100B0C0083D082D0F0D0E0D02132C021C0E0C0F040
:100B1C00C082C083C007C006C005C004C003C002A9
:100B2C00C001C000C0D075D0009000E8E0FEA3E08A
:100B3C00FFC007C0068E828F83120069D006D007D3
:100B4C00D0D0D000D001D002D003D004D005D00634
:100B5C00D007D083D082D0F0D0E0D02132C021C0D9
:100B6C00E0C0F0C082C083C007C006C005C004C08E
:100B7C0003C002C001C000C0D075D0009000E4E0FA
:100B8C00FEA3E04E600E9000E4E0F8A3E0F583884D
:100B9C0082120069D0D0D000D001D002D003D00492
:100BAC00D005D006D007D083D082D0F0D0E0D021B1
:100BBC0032120EF11200EA12011C80FB7582002227
:100BCC00E582FF9012E893FEEF9012C093FF700144
:100BDC0022900094E0FD701BBF0209EEF4FC5292CF
:100BEC00EC529322BF0402800122EEF4FC5296ECEC
:100BFC00529722BD0214BF0207EE4292EE4293229C
:100C0C00BF0439EE4296EE429722BD0116BF020890
:100C1C00EEF45292EE429322BF0421EEF45296EE81
:100C2C00429722BD0316BF0208EE4292EEF4529395
:100C3C0022BF0408EE4296EEF4FE529722AF82BF1A
:100C4C000102800FBF02028013BF03028017BF0492
:100C5C0025801BE5C620E21E539DFB22E5C620E342
:100C6C0015539DF722E5C630E20C539DFB22E5C6D9
:100C7C0030E303539DF722E582FF90129893FEEF29
:100C8C009012E893FDEF9012C093FF7003F582224F
:100C9C00EE600D8E82C007C005120C49D005D0073E
:100CAC007E00BF0202800ABF03028009BF040C80D1
:100CBC0008AE908006AEA08002AEB0ED5E6004750A
:100CCC0082012275820022E582FF90129893FEEF3A
:100CDC009012E893FDEF9012C093FFEE600D8E82A0
:100CEC00C007C005120C49D005D007A2AFE433FEF3
:100CFC00C2AFBF0202800ABF03028017BF04368056
:100D0C0024900095E07007EDF4FF52908027ED429F
:100D1C00908022900095E07007EDF4FF52A08015B2
:100D2C00ED42A08010900095E07007EDF4FF52B0FA
:0B0D3C008003ED42B0EE6002D2AF2257
:100D4800C0D075D00808B8000D09B900090ABA0062
:100D5800050BBB00010CD0D032A2AFC2AFA808A9C6
:100D680009AA0AAB0BAC8A8588F092AF30F51274E9
:100D7800012C600D08B8000909B900050ABA00017C
:100D88000BC3EC9406FCECC313FC75F07DE8A4F8E7
:100D9800ADF075F07DE9A42DF9E435F0FD75F07D31
:100DA800EAA42DFAE435F0FD75F07DEBA42DFB7D6A
:100DB80000EC28F582E93DF583EA3DF5F0EB3D22AC
:100DC800A2AFC2AFA808A909AA0AAB0BAC0C92AF94
:100DD80075F020E8A4A8F075F020E9A428F582A809
:100DE800F075F020EAA428F583A8F075F020EBA4AC
:100DF80028F9A8F075F020ECA42889F02285822231
:100E080085832385F024F525120D61858226858347
:100E18002785F028F529E522452345244525700135
:100E280022A822A923AA24AB2585262A85272B8533
:100E3800282C85292DE8494A4B60DBC003C002C035
:100E480001C000120D61AC82AD83AEF0FFD000D0BE
:100E580001D002D003ECC3952AFCED952BFDEE954D
:100E68002CFEEF952DFFC3EC94E8ED9403EE94006F
:100E7800EF940040A118B8FF0919B9FF051ABAFF85
:100E8800011B882289238A248B2574E8252AF52AC0
:100E98007403352BF52BE4352CF52CE4352DF52D85
:100EA800852A26852B27852C28852D298087AE82A3
:100EB800AF83C374019EE49F40022200C374029E64
:100EC800FE74009FFF00BE0005BF00020022000064
:100ED8000000000000000000000000000000000EFC
:100EE800BE00EB0FBF00ED002275A15575A1AA74D5
:100EF800F855B94406F5B975A100901388120EB6D5
:100F0800759E5D759D0074F055894402F58953C935
:0D0F1800EF758C06C28DD2A9D28CD2AF220B
:010F26003298
:010F28003296
:100F2A0022AF82BF02005036EF75F002A424E6F524
:100F3A0082740035F0F583E51CF0E51DA3F0BF00CF
:100F4A00028005BF0118800B900096E024FF92886A
:100F5A00D2A822900096E0FF24FF928AD2AA22AF5A
:100F6A0082BF02005028BF00028005BF010880042A
:100F7A00C2A88002C2AAEF75F002A424E6FE740099
:0F0F8A0035F0FF8E828F83742AF0740FA3F0224C
:100F9A009000EAE0FF7E008F828E83A3751C108E7C
:100FAA001D1210DBAE829000EBE0FFEEB5070122C6
:100FBA009000EAE02497F582E43400F583E599F09D
:100FCA009000EAEEF0223002409000ECE0FF900040
:100FDA00EDE0FEEFB50605A202C202229000EDE0A6
:100FEA0024A7F582E43400F583E0F5999000EDE05A
:100FFA00FF7E008F828E83A3751C108E1D1210DB5C
:0A100A00AE82AF839000EDEEF022FD
:101014009000EEE0FF7E008F828E83A3751C108EFD
:101024001D1210DBAE829000EFE0FFEEB507012247
:101034009000EEE024B7F582E43400F583E5C1F0D6
:101044009000EEEEF0223003409000F0E0FF9000BC
:10105400F1E0FEEFB50605A203C203229000F1E021
:1010640024C7F582E43400F583E0F5C19000F1E093
:10107400FF7E008F828E83A3751C108E1D1210DBE1
:0A108400AE82AF839000F1EEF0227F
:10108E00E51C451D60467A01E51C25E0F51CE51DB5
:10109E00334012F51DE582951CE583951D40030A2C
:1010AE0080E6C3E51D13F51DE51C13F51CC3E58293
:1010BE00951CF5F0E583951D4005F58385F082C3FB
:1010CE00E51D13F51DE51C13F51CDAE122C2D5E56D
:1010DE008330E70DD2D5E4C39582F582E49583F58E
:1010EE0083E51D30E70BE4C3951CF51CE4951DF557
:1010FE001D12108E30D50BE4C39582F582E49583D4
:03110E00F5832244
:1011110000000000000000002A2B28000000000051
:1011210000000000000000000000000000000000BE
:101131002C9EB4A0A1A2A434A6A7A5AE362D373803
:10114100271E1F20212223242526B333B62EB7B80C
:101151009F8485868788898A8B8C8D8E8F909192CA
:10116100939495969798999A9B9C9D2F3130A3AD16
:10117100350405060708090A0B0C0D0E0F10111294
:10118100131415161718191A1B1C1DAFB1B0B50091
:10119100120110010000000809125DC500010102E1
:1011A1000301120009022900010100806409040001
:1011B100000203010100092110012101227A000727
:1011C10005010309000A0705810309000A7A0005E0
:1011D100010906A1018501050719E029E715002587
:1011E10001950875018102950175088103950675C0
:1011F10008150026FF000507190029E781000508E9
:101201001901290515002501950575019102950121
:1012110075039103C005010902A1010901A100851E
:10122100020509190129031500250195037501819D
:1012310002950175058103050109300931158125E3
:101241007F750895028106C0C029000403090404C2
:10125100001C034300480035003500780020006B76
:10126100006200640020006D006F0073001C001616
:1012710003430048003500350078006400750069BB
:10128100006E006F0016000E0344006500710069D6
:07129100006E0067000E0073
:101298000000000000000000000000000000000145
:1012A800000000000000000000000000000003042F
:1012B800000002000000000001010101010101011C
:1012C80000000202020202020202000003030303FA
:1012D80003030303000004040404040404040000DA
:1012E80001020408102040800000010204081020B8
:1012F8004080000001020408102040800000010224
:101308000408102040800000FFFFFFFFFFFFFFFFE1
:10131800FFFFFF00FFFF0102FFFFFFFFFFFFFFFFCF
:10132800FFFFFFFFFFFFFFFF03FFFFFFFFFFFFFFC1
:0D13380000000000000000000000000000A8
:021345000000A6
:041347002A0F2A0F30
:04134B00000000009E
:04134F00000000009A
:00000001FF
